{
  "contractName": "Charity",
  "abi": [
    {
      "inputs": [],
      "stateMutability": "nonpayable",
      "type": "constructor"
    },
    {
      "anonymous": false,
      "inputs": [
        {
          "indexed": false,
          "internalType": "address",
          "name": "owner",
          "type": "address"
        },
        {
          "indexed": false,
          "internalType": "address",
          "name": "projectAddress",
          "type": "address"
        },
        {
          "indexed": false,
          "internalType": "string",
          "name": "name",
          "type": "string"
        },
        {
          "indexed": false,
          "internalType": "uint256",
          "name": "target",
          "type": "uint256"
        }
      ],
      "name": "addCharityProjectEvent",
      "type": "event"
    },
    {
      "inputs": [
        {
          "internalType": "uint256",
          "name": "",
          "type": "uint256"
        }
      ],
      "name": "listProject",
      "outputs": [
        {
          "internalType": "address",
          "name": "",
          "type": "address"
        }
      ],
      "stateMutability": "view",
      "type": "function",
      "constant": true
    },
    {
      "inputs": [],
      "name": "owner",
      "outputs": [
        {
          "internalType": "address",
          "name": "",
          "type": "address"
        }
      ],
      "stateMutability": "view",
      "type": "function",
      "constant": true
    },
    {
      "inputs": [
        {
          "internalType": "string",
          "name": "_name",
          "type": "string"
        },
        {
          "internalType": "uint256",
          "name": "_target",
          "type": "uint256"
        }
      ],
      "name": "addCharityProject",
      "outputs": [
        {
          "internalType": "bool",
          "name": "",
          "type": "bool"
        }
      ],
      "stateMutability": "nonpayable",
      "type": "function"
    },
    {
      "inputs": [
        {
          "internalType": "address",
          "name": "_address",
          "type": "address"
        }
      ],
      "name": "deleteCharityProject",
      "outputs": [],
      "stateMutability": "nonpayable",
      "type": "function"
    },
    {
      "inputs": [
        {
          "internalType": "address",
          "name": "_address",
          "type": "address"
        }
      ],
      "name": "findProject",
      "outputs": [
        {
          "internalType": "uint256",
          "name": "",
          "type": "uint256"
        }
      ],
      "stateMutability": "view",
      "type": "function",
      "constant": true
    },
    {
      "inputs": [
        {
          "internalType": "uint256",
          "name": "i",
          "type": "uint256"
        }
      ],
      "name": "removeProjectByIndex",
      "outputs": [],
      "stateMutability": "nonpayable",
      "type": "function"
    },
    {
      "inputs": [],
      "name": "getAllProject",
      "outputs": [
        {
          "internalType": "address[]",
          "name": "",
          "type": "address[]"
        }
      ],
      "stateMutability": "view",
      "type": "function",
      "constant": true
    },
    {
      "inputs": [
        {
          "internalType": "address",
          "name": "_address",
          "type": "address"
        }
      ],
      "name": "getProjectInfo",
      "outputs": [
        {
          "components": [
            {
              "internalType": "address",
              "name": "projectAddress",
              "type": "address"
            },
            {
              "internalType": "string",
              "name": "name",
              "type": "string"
            },
            {
              "internalType": "uint256",
              "name": "target",
              "type": "uint256"
            },
            {
              "internalType": "uint256",
              "name": "balance",
              "type": "uint256"
            },
            {
              "internalType": "uint256",
              "name": "allocated",
              "type": "uint256"
            },
            {
              "internalType": "uint256",
              "name": "numberOfDonator",
              "type": "uint256"
            },
            {
              "internalType": "uint256",
              "name": "numberOfBeneficy",
              "type": "uint256"
            },
            {
              "components": [
                {
                  "internalType": "address payable",
                  "name": "beneficiaryAddress",
                  "type": "address"
                },
                {
                  "internalType": "string",
                  "name": "name",
                  "type": "string"
                },
                {
                  "internalType": "string",
                  "name": "description",
                  "type": "string"
                }
              ],
              "internalType": "struct Project.Beneficiary[]",
              "name": "beneficiaries",
              "type": "tuple[]"
            },
            {
              "internalType": "enum Project.charity_state",
              "name": "state",
              "type": "uint8"
            }
          ],
          "internalType": "struct Project.ProjectInfo",
          "name": "",
          "type": "tuple"
        }
      ],
      "stateMutability": "view",
      "type": "function",
      "constant": true
    },
    {
      "inputs": [],
      "name": "getOwner",
      "outputs": [
        {
          "internalType": "address",
          "name": "",
          "type": "address"
        }
      ],
      "stateMutability": "view",
      "type": "function",
      "constant": true
    },
    {
      "inputs": [],
      "name": "getInfoCharity",
      "outputs": [
        {
          "internalType": "uint256",
          "name": "totalDonate",
          "type": "uint256"
        },
        {
          "internalType": "uint256",
          "name": "totalDonator",
          "type": "uint256"
        },
        {
          "internalType": "uint256",
          "name": "totalBeneficy",
          "type": "uint256"
        }
      ],
      "stateMutability": "view",
      "type": "function",
      "constant": true
    }
  ],
  "bytecode": "0x608060405234801561001057600080fd5b5033600160006101000a81548173ffffffffffffffffffffffffffffffffffffffff021916908373ffffffffffffffffffffffffffffffffffffffff1602179055506158b4806100616000396000f3fe60806040523480156200001157600080fd5b5060043610620000ac5760003560e01c80638da5cb5b116200006f5780638da5cb5b1462000195578063a604bdae14620001b7578063c1e7dcd214620001ed578063d70ed4981462000211578063ffb21371146200023357620000ac565b806347ee45b914620000b15780635235483e14620000e7578063710b15f7146200011d57806385a20c80146200013d578063893d20e81462000173575b600080fd5b620000cf6004803603810190620000c9919062000a7f565b62000253565b604051620000de919062000e27565b60405180910390f35b620001056004803603810190620000ff919062000a7f565b620002e1565b60405162000114919062000e5c565b60405180910390f35b6200013b600480360381019062000135919062000a7f565b6200037d565b005b6200015b600480360381019062000155919062000eaa565b6200042e565b6040516200016a919062000eed565b60405180910390f35b6200017d6200046e565b6040516200018c919062000eed565b60405180910390f35b6200019f62000498565b604051620001ae919062000eed565b60405180910390f35b620001d56004803603810190620001cf91906200105b565b620004be565b604051620001e49190620010de565b60405180910390f35b620001f7620006b2565b6040516200020893929190620010fb565b60405180910390f35b6200021b620007f0565b6040516200022a9190620011f5565b60405180910390f35b6200025160048036038101906200024b919062000eaa565b62000880565b005b6200025d62000981565b60008290508073ffffffffffffffffffffffffffffffffffffffff166367c897fe6040518163ffffffff1660e01b8152600401600060405180830381865afa158015620002ae573d6000803e3d6000fd5b505050506040513d6000823e3d601f19601f82011682018060405250810190620002d9919062001606565b915050919050565b600080600090505b8273ffffffffffffffffffffffffffffffffffffffff166000828154811062000317576200031662001657565b5b9060005260206000200160009054906101000a900473ffffffffffffffffffffffffffffffffffffffff1673ffffffffffffffffffffffffffffffffffffffff1614620003745780806200036b90620016b5565b915050620002e9565b80915050919050565b600160009054906101000a900473ffffffffffffffffffffffffffffffffffffffff1673ffffffffffffffffffffffffffffffffffffffff163373ffffffffffffffffffffffffffffffffffffffff161462000410576040517f08c379a0000000000000000000000000000000000000000000000000000000008152600401620004079062001763565b60405180910390fd5b60006200041d82620002e1565b90506200042a8162000880565b5050565b600081815481106200043f57600080fd5b906000526020600020016000915054906101000a900473ffffffffffffffffffffffffffffffffffffffff1681565b6000600160009054906101000a900473ffffffffffffffffffffffffffffffffffffffff16905090565b600160009054906101000a900473ffffffffffffffffffffffffffffffffffffffff1681565b6000600160009054906101000a900473ffffffffffffffffffffffffffffffffffffffff1673ffffffffffffffffffffffffffffffffffffffff163373ffffffffffffffffffffffffffffffffffffffff161462000553576040517f08c379a00000000000000000000000000000000000000000000000000000000081526004016200054a9062001763565b60405180910390fd5b60008383336040516200056690620009f8565b6200057493929190620017c6565b604051809103906000f08015801562000591573d6000803e3d6000fd5b5090506000819080600181540180825580915050600190039060005260206000200160009091909190916101000a81548173ffffffffffffffffffffffffffffffffffffffff021916908373ffffffffffffffffffffffffffffffffffffffff1602179055507f85ba33523ad4e48c04ae48d4a2a3ec940b0c7fa66ec23e7fe760408fbacd03b7338273ffffffffffffffffffffffffffffffffffffffff166338cc48316040518163ffffffff1660e01b8152600401602060405180830381865afa15801562000665573d6000803e3d6000fd5b505050506040513d601f19601f820116820180604052508101906200068b91906200180a565b86866040516200069f94939291906200183c565b60405180910390a1600191505092915050565b600080600080600090505b600080549050811015620007ea576000808281548110620006e357620006e262001657565b5b9060005260206000200160009054906101000a900473ffffffffffffffffffffffffffffffffffffffff1673ffffffffffffffffffffffffffffffffffffffff166367c897fe6040518163ffffffff1660e01b8152600401600060405180830381865afa15801562000759573d6000803e3d6000fd5b505050506040513d6000823e3d601f19601f8201168201806040525081019062000784919062001606565b9050806080015181606001516200079c919062001890565b85620007a9919062001890565b94508060a0015184620007bd919062001890565b93508060c0015183620007d1919062001890565b9250508080620007e190620016b5565b915050620006bd565b50909192565b606060008054806020026020016040519081016040528092919081815260200182805480156200087657602002820191906000526020600020905b8160009054906101000a900473ffffffffffffffffffffffffffffffffffffffff1673ffffffffffffffffffffffffffffffffffffffff16815260200190600101908083116200082b575b5050505050905090565b60006001600080549050620008969190620018cb565b81548110620008aa57620008a962001657565b5b9060005260206000200160009054906101000a900473ffffffffffffffffffffffffffffffffffffffff1660008281548110620008ec57620008eb62001657565b5b9060005260206000200160006101000a81548173ffffffffffffffffffffffffffffffffffffffff021916908373ffffffffffffffffffffffffffffffffffffffff160217905550600080548062000949576200094862001906565b5b6001900381819060005260206000200160006101000a81549073ffffffffffffffffffffffffffffffffffffffff0219169055905550565b604051806101200160405280600073ffffffffffffffffffffffffffffffffffffffff1681526020016060815260200160008152602001600081526020016000815260200160008152602001600081526020016060815260200160006002811115620009f257620009f162000cc9565b5b81525090565b613f49806200193683390190565b6000604051905090565b600080fd5b600080fd5b600073ffffffffffffffffffffffffffffffffffffffff82169050919050565b600062000a478262000a1a565b9050919050565b62000a598162000a3a565b811462000a6557600080fd5b50565b60008135905062000a798162000a4e565b92915050565b60006020828403121562000a985762000a9762000a10565b5b600062000aa88482850162000a68565b91505092915050565b62000abc8162000a3a565b82525050565b600081519050919050565b600082825260208201905092915050565b60005b8381101562000afe57808201518184015260208101905062000ae1565b60008484015250505050565b6000601f19601f8301169050919050565b600062000b288262000ac2565b62000b34818562000acd565b935062000b4681856020860162000ade565b62000b518162000b0a565b840191505092915050565b6000819050919050565b62000b718162000b5c565b82525050565b600081519050919050565b600082825260208201905092915050565b6000819050602082019050919050565b600062000bb08262000a1a565b9050919050565b62000bc28162000ba3565b82525050565b600060608301600083015162000be2600086018262000bb7565b506020830151848203602086015262000bfc828262000b1b565b9150506040830151848203604086015262000c18828262000b1b565b9150508091505092915050565b600062000c33838362000bc8565b905092915050565b6000602082019050919050565b600062000c558262000b77565b62000c61818562000b82565b93508360208202850162000c758562000b93565b8060005b8581101562000cb7578484038952815162000c95858262000c25565b945062000ca28362000c3b565b925060208a0199505060018101905062000c79565b50829750879550505050505092915050565b7f4e487b7100000000000000000000000000000000000000000000000000000000600052602160045260246000fd5b6003811062000d0c5762000d0b62000cc9565b5b50565b600081905062000d1f8262000cf8565b919050565b600062000d318262000d0f565b9050919050565b62000d438162000d24565b82525050565b60006101208301600083015162000d64600086018262000ab1565b506020830151848203602086015262000d7e828262000b1b565b915050604083015162000d95604086018262000b66565b50606083015162000daa606086018262000b66565b50608083015162000dbf608086018262000b66565b5060a083015162000dd460a086018262000b66565b5060c083015162000de960c086018262000b66565b5060e083015184820360e086015262000e03828262000c48565b91505061010083015162000e1c61010086018262000d38565b508091505092915050565b6000602082019050818103600083015262000e43818462000d49565b905092915050565b62000e568162000b5c565b82525050565b600060208201905062000e73600083018462000e4b565b92915050565b62000e848162000b5c565b811462000e9057600080fd5b50565b60008135905062000ea48162000e79565b92915050565b60006020828403121562000ec35762000ec262000a10565b5b600062000ed38482850162000e93565b91505092915050565b62000ee78162000a3a565b82525050565b600060208201905062000f04600083018462000edc565b92915050565b600080fd5b600080fd5b7f4e487b7100000000000000000000000000000000000000000000000000000000600052604160045260246000fd5b62000f4e8262000b0a565b810181811067ffffffffffffffff8211171562000f705762000f6f62000f14565b5b80604052505050565b600062000f8562000a06565b905062000f93828262000f43565b919050565b600067ffffffffffffffff82111562000fb65762000fb562000f14565b5b62000fc18262000b0a565b9050602081019050919050565b82818337600083830152505050565b600062000ff462000fee8462000f98565b62000f79565b90508281526020810184848401111562001013576200101262000f0f565b5b6200102084828562000fce565b509392505050565b600082601f83011262001040576200103f62000f0a565b5b81356200105284826020860162000fdd565b91505092915050565b6000806040838503121562001075576200107462000a10565b5b600083013567ffffffffffffffff81111562001096576200109562000a15565b5b620010a48582860162001028565b9250506020620010b78582860162000e93565b9150509250929050565b60008115159050919050565b620010d881620010c1565b82525050565b6000602082019050620010f56000830184620010cd565b92915050565b600060608201905062001112600083018662000e4b565b62001121602083018562000e4b565b62001130604083018462000e4b565b949350505050565b600081519050919050565b600082825260208201905092915050565b6000819050602082019050919050565b600062001172838362000ab1565b60208301905092915050565b6000602082019050919050565b6000620011988262001138565b620011a4818562001143565b9350620011b18362001154565b8060005b83811015620011e8578151620011cc888262001164565b9750620011d9836200117e565b925050600181019050620011b5565b5085935050505092915050565b600060208201905081810360008301526200121181846200118b565b905092915050565b600080fd5b600080fd5b600081519050620012348162000a4e565b92915050565b6000620012516200124b8462000f98565b62000f79565b90508281526020810184848401111562001270576200126f62000f0f565b5b6200127d84828562000ade565b509392505050565b600082601f8301126200129d576200129c62000f0a565b5b8151620012af8482602086016200123a565b91505092915050565b600081519050620012c98162000e79565b92915050565b600067ffffffffffffffff821115620012ed57620012ec62000f14565b5b602082029050602081019050919050565b600080fd5b6200130e8162000ba3565b81146200131a57600080fd5b50565b6000815190506200132e8162001303565b92915050565b6000606082840312156200134d576200134c62001219565b5b62001359606062000f79565b905060006200136b848285016200131d565b600083015250602082015167ffffffffffffffff8111156200139257620013916200121e565b5b620013a08482850162001285565b602083015250604082015167ffffffffffffffff811115620013c757620013c66200121e565b5b620013d58482850162001285565b60408301525092915050565b6000620013f8620013f284620012cf565b62000f79565b905080838252602082019050602084028301858111156200141e576200141d620012fe565b5b835b818110156200146c57805167ffffffffffffffff81111562001447576200144662000f0a565b5b80860162001456898262001334565b8552602085019450505060208101905062001420565b5050509392505050565b600082601f8301126200148e576200148d62000f0a565b5b8151620014a0848260208601620013e1565b91505092915050565b60038110620014b757600080fd5b50565b600081519050620014cb81620014a9565b92915050565b60006101208284031215620014eb57620014ea62001219565b5b620014f861012062000f79565b905060006200150a8482850162001223565b600083015250602082015167ffffffffffffffff8111156200153157620015306200121e565b5b6200153f8482850162001285565b60208301525060406200155584828501620012b8565b60408301525060606200156b84828501620012b8565b60608301525060806200158184828501620012b8565b60808301525060a06200159784828501620012b8565b60a08301525060c0620015ad84828501620012b8565b60c08301525060e082015167ffffffffffffffff811115620015d457620015d36200121e565b5b620015e28482850162001476565b60e083015250610100620015f984828501620014ba565b6101008301525092915050565b6000602082840312156200161f576200161e62000a10565b5b600082015167ffffffffffffffff81111562001640576200163f62000a15565b5b6200164e84828501620014d1565b91505092915050565b7f4e487b7100000000000000000000000000000000000000000000000000000000600052603260045260246000fd5b7f4e487b7100000000000000000000000000000000000000000000000000000000600052601160045260246000fd5b6000620016c28262000b5c565b91507fffffffffffffffffffffffffffffffffffffffffffffffffffffffffffffffff8203620016f757620016f662001686565b5b600182019050919050565b600082825260208201905092915050565b7f4e6f205065726d697373696f6e00000000000000000000000000000000000000600082015250565b60006200174b600d8362001702565b9150620017588262001713565b602082019050919050565b600060208201905081810360008301526200177e816200173c565b9050919050565b6000620017928262000ac2565b6200179e818562001702565b9350620017b081856020860162000ade565b620017bb8162000b0a565b840191505092915050565b60006060820190508181036000830152620017e2818662001785565b9050620017f3602083018562000e4b565b62001802604083018462000edc565b949350505050565b60006020828403121562001823576200182262000a10565b5b6000620018338482850162001223565b91505092915050565b600060808201905062001853600083018762000edc565b62001862602083018662000edc565b818103604083015262001876818562001785565b905062001887606083018462000e4b565b95945050505050565b60006200189d8262000b5c565b9150620018aa8362000b5c565b9250828201905080821115620018c557620018c462001686565b5b92915050565b6000620018d88262000b5c565b9150620018e58362000b5c565b92508282039050818111156200190057620018ff62001686565b5b92915050565b7f4e487b7100000000000000000000000000000000000000000000000000000000600052603160045260246000fdfe60806040523480156200001157600080fd5b5060405162003f4938038062003f49833981810160405281019062000037919062000341565b600082116200007d576040517f08c379a000000000000000000000000000000000000000000000000000000000815260040162000074906200041d565b60405180910390fd5b82600090816200008e919062000680565b5080600160006101000a81548173ffffffffffffffffffffffffffffffffffffffff021916908373ffffffffffffffffffffffffffffffffffffffff160217905550816002819055506000600a60006101000a81548160ff021916908360028111156200010057620000ff62000767565b5b021790555050505062000796565b6000604051905090565b600080fd5b600080fd5b600080fd5b600080fd5b6000601f19601f8301169050919050565b7f4e487b7100000000000000000000000000000000000000000000000000000000600052604160045260246000fd5b62000177826200012c565b810181811067ffffffffffffffff821117156200019957620001986200013d565b5b80604052505050565b6000620001ae6200010e565b9050620001bc82826200016c565b919050565b600067ffffffffffffffff821115620001df57620001de6200013d565b5b620001ea826200012c565b9050602081019050919050565b60005b8381101562000217578082015181840152602081019050620001fa565b60008484015250505050565b60006200023a6200023484620001c1565b620001a2565b90508281526020810184848401111562000259576200025862000127565b5b62000266848285620001f7565b509392505050565b600082601f83011262000286576200028562000122565b5b81516200029884826020860162000223565b91505092915050565b6000819050919050565b620002b681620002a1565b8114620002c257600080fd5b50565b600081519050620002d681620002ab565b92915050565b600073ffffffffffffffffffffffffffffffffffffffff82169050919050565b60006200030982620002dc565b9050919050565b6200031b81620002fc565b81146200032757600080fd5b50565b6000815190506200033b8162000310565b92915050565b6000806000606084860312156200035d576200035c62000118565b5b600084015167ffffffffffffffff8111156200037e576200037d6200011d565b5b6200038c868287016200026e565b93505060206200039f86828701620002c5565b9250506040620003b2868287016200032a565b9150509250925092565b600082825260208201905092915050565b7f546172676574206d7573742062652067726561746572207468616e207a65726f600082015250565b600062000405602083620003bc565b91506200041282620003cd565b602082019050919050565b600060208201905081810360008301526200043881620003f6565b9050919050565b600081519050919050565b7f4e487b7100000000000000000000000000000000000000000000000000000000600052602260045260246000fd5b600060028204905060018216806200049257607f821691505b602082108103620004a857620004a76200044a565b5b50919050565b60008190508160005260206000209050919050565b60006020601f8301049050919050565b600082821b905092915050565b600060088302620005127fffffffffffffffffffffffffffffffffffffffffffffffffffffffffffffffff82620004d3565b6200051e8683620004d3565b95508019841693508086168417925050509392505050565b6000819050919050565b6000620005616200055b6200055584620002a1565b62000536565b620002a1565b9050919050565b6000819050919050565b6200057d8362000540565b620005956200058c8262000568565b848454620004e0565b825550505050565b600090565b620005ac6200059d565b620005b981848462000572565b505050565b5b81811015620005e157620005d5600082620005a2565b600181019050620005bf565b5050565b601f8211156200063057620005fa81620004ae565b6200060584620004c3565b8101602085101562000615578190505b6200062d6200062485620004c3565b830182620005be565b50505b505050565b600082821c905092915050565b6000620006556000198460080262000635565b1980831691505092915050565b600062000670838362000642565b9150826002028217905092915050565b6200068b826200043f565b67ffffffffffffffff811115620006a757620006a66200013d565b5b620006b3825462000479565b620006c0828285620005e5565b600060209050601f831160018114620006f85760008415620006e3578287015190505b620006ef858262000662565b8655506200075f565b601f1984166200070886620004ae565b60005b8281101562000732578489015182556001820191506020850194506020810190506200070b565b868310156200075257848901516200074e601f89168262000642565b8355505b6001600288020188555050505b505050505050565b7f4e487b7100000000000000000000000000000000000000000000000000000000600052602160045260246000fd5b6137a380620007a66000396000f3fe6080604052600436106101355760003560e01c806373d81bb7116100ab578063ac62f5661161006f578063ac62f5661461042b578063b304b2e11461046c578063c19d93fb14610497578063d4b83992146104c2578063efeb5e58146104ed578063fba9d55e1461052c57610135565b806373d81bb71461035457806378e979251461037f5780637bad2c0d146103aa5780638da5cb5b146103d5578063a07354631461040057610135565b806338cc4831116100fd57806338cc48311461022a578063481b5f6f146102555780634b084d491461029657806356fd7dab146102c15780635aa89076146102ec57806367c897fe1461032957610135565b806306fdde031461013a5780630a24e8961461016557806312065fe0146101a45780631653441c146101cf5780633197cbb6146101ff575b600080fd5b34801561014657600080fd5b5061014f610569565b60405161015c91906122a7565b60405180910390f35b34801561017157600080fd5b5061018c60048036038101906101879190612313565b6105f7565b60405161019b93929190612431565b60405180910390f35b3480156101b057600080fd5b506101b96107b5565b6040516101c6919061246f565b60405180910390f35b6101e960048036038101906101e491906125bf565b6107bd565b6040516101f69190612652565b60405180910390f35b34801561020b57600080fd5b50610214610b5d565b604051610221919061246f565b60405180910390f35b34801561023657600080fd5b5061023f610b63565b60405161024c919061268e565b60405180910390f35b34801561026157600080fd5b5061027c600480360381019061027791906126d5565b610b6b565b60405161028d959493929190612715565b60405180910390f35b3480156102a257600080fd5b506102ab610cee565b6040516102b89190612652565b60405180910390f35b3480156102cd57600080fd5b506102d6610d17565b6040516102e391906128ee565b60405180910390f35b3480156102f857600080fd5b50610313600480360381019061030e9190612910565b610f1e565b6040516103209190612a8b565b60405180910390f35b34801561033557600080fd5b5061033e611150565b60405161034b9190612cb2565b60405180910390f35b34801561036057600080fd5b5061036961144b565b6040516103769190612652565b60405180910390f35b34801561038b57600080fd5b50610394611479565b6040516103a1919061246f565b60405180910390f35b3480156103b657600080fd5b506103bf61147f565b6040516103cc9190612d5a565b60405180910390f35b3480156103e157600080fd5b506103ea61165e565b6040516103f7919061268e565b60405180910390f35b34801561040c57600080fd5b50610415611684565b6040516104229190612a8b565b60405180910390f35b34801561043757600080fd5b50610452600480360381019061044d9190612313565b611877565b604051610463959493929190612715565b60405180910390f35b34801561047857600080fd5b506104816119ed565b60405161048e919061246f565b60405180910390f35b3480156104a357600080fd5b506104ac6119f3565b6040516104b99190612d8b565b60405180910390f35b3480156104ce57600080fd5b506104d7611a06565b6040516104e4919061246f565b60405180910390f35b3480156104f957600080fd5b50610514600480360381019061050f9190612313565b611a0c565b60405161052393929190612db5565b60405180910390f35b34801561053857600080fd5b50610553600480360381019061054e9190612fb2565b611b76565b6040516105609190612652565b60405180910390f35b600080546105769061306c565b80601f01602080910402602001604051908101604052809291908181526020018280546105a29061306c565b80156105ef5780601f106105c4576101008083540402835291602001916105ef565b820191906000526020600020905b8154815290600101906020018083116105d257829003601f168201915b505050505081565b6009818154811061060757600080fd5b9060005260206000209060050201600091509050806000016040518060600160405290816000820160009054906101000a900473ffffffffffffffffffffffffffffffffffffffff1673ffffffffffffffffffffffffffffffffffffffff1673ffffffffffffffffffffffffffffffffffffffff1681526020016001820180546106909061306c565b80601f01602080910402602001604051908101604052809291908181526020018280546106bc9061306c565b80156107095780601f106106de57610100808354040283529160200191610709565b820191906000526020600020905b8154815290600101906020018083116106ec57829003601f168201915b505050505081526020016002820180546107229061306c565b80601f016020809104026020016040519081016040528092919081815260200182805461074e9061306c565b801561079b5780601f106107705761010080835404028352916020019161079b565b820191906000526020600020905b81548152906001019060200180831161077e57829003601f168201915b505050505081525050908060030154908060040154905083565b600047905090565b6000600160028111156107d3576107d2612b6f565b5b600a60009054906101000a900460ff1660028111156107f5576107f4612b6f565b5b14610835576040517f08c379a000000000000000000000000000000000000000000000000000000000815260040161082c9061310f565b60405180910390fd5b60003411610878576040517f08c379a000000000000000000000000000000000000000000000000000000000815260040161086f9061317b565b60405180910390fd5b343373ffffffffffffffffffffffffffffffffffffffff1631116108d1576040517f08c379a00000000000000000000000000000000000000000000000000000000081526004016108c8906131e7565b60405180910390fd5b60006040518060a001604052803373ffffffffffffffffffffffffffffffffffffffff168152602001858152602001848152602001348152602001428152509050600660003373ffffffffffffffffffffffffffffffffffffffff1673ffffffffffffffffffffffffffffffffffffffff16815260200190815260200160002081908060018154018082558091505060019003906000526020600020906005020160009091909190915060008201518160000160006101000a81548173ffffffffffffffffffffffffffffffffffffffff021916908373ffffffffffffffffffffffffffffffffffffffff16021790555060208201518160010190816109d791906133b3565b5060408201518160020190816109ed91906133b3565b5060608201518160030155608082015181600401555050600781908060018154018082558091505060019003906000526020600020906005020160009091909190915060008201518160000160006101000a81548173ffffffffffffffffffffffffffffffffffffffff021916908373ffffffffffffffffffffffffffffffffffffffff1602179055506020820151816001019081610a8c91906133b3565b506040820151816002019081610aa291906133b3565b50606082015181600301556080820151816004015550507f24d83d68453fc3df073101ac515398dd4daeb23e45efb66c3ad49303c188968e81604051610ae89190613502565b60405180910390a160011515610afc61144b565b151503610b525760011515610b0f610cee565b151503610b49576002600a60006101000a81548160ff02191690836002811115610b3c57610b3b612b6f565b5b0217905550426005819055505b610b51611dbb565b5b600191505092915050565b60055481565b600030905090565b60066020528160005260406000208181548110610b8757600080fd5b9060005260206000209060050201600091509150508060000160009054906101000a900473ffffffffffffffffffffffffffffffffffffffff1690806001018054610bd19061306c565b80601f0160208091040260200160405190810160405280929190818152602001828054610bfd9061306c565b8015610c4a5780601f10610c1f57610100808354040283529160200191610c4a565b820191906000526020600020905b815481529060010190602001808311610c2d57829003601f168201915b505050505090806002018054610c5f9061306c565b80601f0160208091040260200160405190810160405280929190818152602001828054610c8b9061306c565b8015610cd85780601f10610cad57610100808354040283529160200191610cd8565b820191906000526020600020905b815481529060010190602001808311610cbb57829003601f168201915b5050505050908060030154908060040154905085565b600060025460035447610d019190613553565b10610d0f5760019050610d14565b600090505b90565b606060006009805480602002602001604051908101604052809291908181526020016000905b82821015610f115783829060005260206000209060050201604051806060016040529081600082016040518060600160405290816000820160009054906101000a900473ffffffffffffffffffffffffffffffffffffffff1673ffffffffffffffffffffffffffffffffffffffff1673ffffffffffffffffffffffffffffffffffffffff168152602001600182018054610dd69061306c565b80601f0160208091040260200160405190810160405280929190818152602001828054610e029061306c565b8015610e4f5780601f10610e2457610100808354040283529160200191610e4f565b820191906000526020600020905b815481529060010190602001808311610e3257829003601f168201915b50505050508152602001600282018054610e689061306c565b80601f0160208091040260200160405190810160405280929190818152602001828054610e949061306c565b8015610ee15780601f10610eb657610100808354040283529160200191610ee1565b820191906000526020600020905b815481529060010190602001808311610ec457829003601f168201915b50505050508152505081526020016003820154815260200160048201548152505081526020019060010190610d3d565b5050505090508091505090565b60606000600660008473ffffffffffffffffffffffffffffffffffffffff1673ffffffffffffffffffffffffffffffffffffffff168152602001908152602001600020805480602002602001604051908101604052809291908181526020016000905b8282101561114157838290600052602060002090600502016040518060a00160405290816000820160009054906101000a900473ffffffffffffffffffffffffffffffffffffffff1673ffffffffffffffffffffffffffffffffffffffff1673ffffffffffffffffffffffffffffffffffffffff16815260200160018201805461100a9061306c565b80601f01602080910402602001604051908101604052809291908181526020018280546110369061306c565b80156110835780601f1061105857610100808354040283529160200191611083565b820191906000526020600020905b81548152906001019060200180831161106657829003601f168201915b5050505050815260200160028201805461109c9061306c565b80601f01602080910402602001604051908101604052809291908181526020018280546110c89061306c565b80156111155780601f106110ea57610100808354040283529160200191611115565b820191906000526020600020905b8154815290600101906020018083116110f857829003601f168201915b505050505081526020016003820154815260200160048201548152505081526020019060010190610f81565b50505050905080915050919050565b6111586121a3565b60405180610120016040528061116c610b63565b73ffffffffffffffffffffffffffffffffffffffff168152602001600080546111949061306c565b80601f01602080910402602001604051908101604052809291908181526020018280546111c09061306c565b801561120d5780601f106111e25761010080835404028352916020019161120d565b820191906000526020600020905b8154815290600101906020018083116111f057829003601f168201915b5050505050815260200160025481526020016112276107b5565b81526020016003548152602001600780549050815260200160088054905081526020016008805480602002602001604051908101604052809291908181526020016000905b8282101561141857838290600052602060002090600302016040518060600160405290816000820160009054906101000a900473ffffffffffffffffffffffffffffffffffffffff1673ffffffffffffffffffffffffffffffffffffffff1673ffffffffffffffffffffffffffffffffffffffff1681526020016001820180546112f59061306c565b80601f01602080910402602001604051908101604052809291908181526020018280546113219061306c565b801561136e5780601f106113435761010080835404028352916020019161136e565b820191906000526020600020905b81548152906001019060200180831161135157829003601f168201915b505050505081526020016002820180546113879061306c565b80601f01602080910402602001604051908101604052809291908181526020018280546113b39061306c565b80156114005780601f106113d557610100808354040283529160200191611400565b820191906000526020600020905b8154815290600101906020018083116113e357829003601f168201915b5050505050815250508152602001906001019061126c565b505050508152602001600a60009054906101000a900460ff16600281111561144357611442612b6f565b5b815250905090565b60006002805461145b91906135b6565b6114636107b5565b106114715760019050611476565b600090505b90565b60045481565b606060006008805480602002602001604051908101604052809291908181526020016000905b8282101561165157838290600052602060002090600302016040518060600160405290816000820160009054906101000a900473ffffffffffffffffffffffffffffffffffffffff1673ffffffffffffffffffffffffffffffffffffffff1673ffffffffffffffffffffffffffffffffffffffff16815260200160018201805461152e9061306c565b80601f016020809104026020016040519081016040528092919081815260200182805461155a9061306c565b80156115a75780601f1061157c576101008083540402835291602001916115a7565b820191906000526020600020905b81548152906001019060200180831161158a57829003601f168201915b505050505081526020016002820180546115c09061306c565b80601f01602080910402602001604051908101604052809291908181526020018280546115ec9061306c565b80156116395780601f1061160e57610100808354040283529160200191611639565b820191906000526020600020905b81548152906001019060200180831161161c57829003601f168201915b505050505081525050815260200190600101906114a5565b5050505090508091505090565b600160009054906101000a900473ffffffffffffffffffffffffffffffffffffffff1681565b606060006007805480602002602001604051908101604052809291908181526020016000905b8282101561186a57838290600052602060002090600502016040518060a00160405290816000820160009054906101000a900473ffffffffffffffffffffffffffffffffffffffff1673ffffffffffffffffffffffffffffffffffffffff1673ffffffffffffffffffffffffffffffffffffffff1681526020016001820180546117339061306c565b80601f016020809104026020016040519081016040528092919081815260200182805461175f9061306c565b80156117ac5780601f10611781576101008083540402835291602001916117ac565b820191906000526020600020905b81548152906001019060200180831161178f57829003601f168201915b505050505081526020016002820180546117c59061306c565b80601f01602080910402602001604051908101604052809291908181526020018280546117f19061306c565b801561183e5780601f106118135761010080835404028352916020019161183e565b820191906000526020600020905b81548152906001019060200180831161182157829003601f168201915b5050505050815260200160038201548152602001600482015481525050815260200190600101906116aa565b5050505090508091505090565b6007818154811061188757600080fd5b90600052602060002090600502016000915090508060000160009054906101000a900473ffffffffffffffffffffffffffffffffffffffff16908060010180546118d09061306c565b80601f01602080910402602001604051908101604052809291908181526020018280546118fc9061306c565b80156119495780601f1061191e57610100808354040283529160200191611949565b820191906000526020600020905b81548152906001019060200180831161192c57829003601f168201915b50505050509080600201805461195e9061306c565b80601f016020809104026020016040519081016040528092919081815260200182805461198a9061306c565b80156119d75780601f106119ac576101008083540402835291602001916119d7565b820191906000526020600020905b8154815290600101906020018083116119ba57829003601f168201915b5050505050908060030154908060040154905085565b60035481565b600a60009054906101000a900460ff1681565b60025481565b60088181548110611a1c57600080fd5b90600052602060002090600302016000915090508060000160009054906101000a900473ffffffffffffffffffffffffffffffffffffffff1690806001018054611a659061306c565b80601f0160208091040260200160405190810160405280929190818152602001828054611a919061306c565b8015611ade5780601f10611ab357610100808354040283529160200191611ade565b820191906000526020600020905b815481529060010190602001808311611ac157829003601f168201915b505050505090806002018054611af39061306c565b80601f0160208091040260200160405190810160405280929190818152602001828054611b1f9061306c565b8015611b6c5780601f10611b4157610100808354040283529160200191611b6c565b820191906000526020600020905b815481529060010190602001808311611b4f57829003601f168201915b5050505050905083565b6000600160009054906101000a900473ffffffffffffffffffffffffffffffffffffffff1673ffffffffffffffffffffffffffffffffffffffff163373ffffffffffffffffffffffffffffffffffffffff1614611c08576040517f08c379a0000000000000000000000000000000000000000000000000000000008152600401611bff90613633565b60405180910390fd5b60006002811115611c1c57611c1b612b6f565b5b600a60009054906101000a900460ff166002811115611c3e57611c3d612b6f565b5b14611c7e576040517f08c379a0000000000000000000000000000000000000000000000000000000008152600401611c759061369f565b60405180910390fd5b6000825111611c8c57600080fd5b60005b8251811015611d66576008838281518110611cad57611cac6136bf565b5b6020026020010151908060018154018082558091505060019003906000526020600020906003020160009091909190915060008201518160000160006101000a81548173ffffffffffffffffffffffffffffffffffffffff021916908373ffffffffffffffffffffffffffffffffffffffff1602179055506020820151816001019081611d3a91906133b3565b506040820151816002019081611d5091906133b3565b5050508080611d5e906136ee565b915050611c8f565b508360009081611d7691906133b3565b50826002819055506001600a60006101000a81548160ff02191690836002811115611da457611da3612b6f565b5b021790555042600481905550600190509392505050565b4760036000828254611dcd9190613553565b925050819055506000600880549050905060008147611dec91906135b6565b905060005b8281101561219e5760088181548110611e0d57611e0c6136bf565b5b906000526020600020906003020160000160009054906101000a900473ffffffffffffffffffffffffffffffffffffffff1673ffffffffffffffffffffffffffffffffffffffff166108fc839081150290604051600060405180830381858888f19350505050158015611e84573d6000803e3d6000fd5b506000604051806060016040528060088481548110611ea657611ea56136bf565b5b90600052602060002090600302016040518060600160405290816000820160009054906101000a900473ffffffffffffffffffffffffffffffffffffffff1673ffffffffffffffffffffffffffffffffffffffff1673ffffffffffffffffffffffffffffffffffffffff168152602001600182018054611f259061306c565b80601f0160208091040260200160405190810160405280929190818152602001828054611f519061306c565b8015611f9e5780601f10611f7357610100808354040283529160200191611f9e565b820191906000526020600020905b815481529060010190602001808311611f8157829003601f168201915b50505050508152602001600282018054611fb79061306c565b80601f0160208091040260200160405190810160405280929190818152602001828054611fe39061306c565b80156120305780601f1061200557610100808354040283529160200191612030565b820191906000526020600020905b81548152906001019060200180831161201357829003601f168201915b5050505050815250508152602001848152602001428152509050600981908060018154018082558091505060019003906000526020600020906005020160009091909190915060008201518160000160008201518160000160006101000a81548173ffffffffffffffffffffffffffffffffffffffff021916908373ffffffffffffffffffffffffffffffffffffffff16021790555060208201518160010190816120db91906133b3565b5060408201518160020190816120f191906133b3565b505050602082015181600301556040820151816004015550507ffaffca71c161e93019c1527f21a0fb1523759be5092113930dab383f15a3a35930600884815481106121405761213f6136bf565b5b906000526020600020906003020160000160009054906101000a900473ffffffffffffffffffffffffffffffffffffffff168560405161218293929190613736565b60405180910390a1508080612196906136ee565b915050611df1565b505050565b604051806101200160405280600073ffffffffffffffffffffffffffffffffffffffff168152602001606081526020016000815260200160008152602001600081526020016000815260200160008152602001606081526020016000600281111561221157612210612b6f565b5b81525090565b600081519050919050565b600082825260208201905092915050565b60005b83811015612251578082015181840152602081019050612236565b60008484015250505050565b6000601f19601f8301169050919050565b600061227982612217565b6122838185612222565b9350612293818560208601612233565b61229c8161225d565b840191505092915050565b600060208201905081810360008301526122c1818461226e565b905092915050565b6000604051905090565b600080fd5b600080fd5b6000819050919050565b6122f0816122dd565b81146122fb57600080fd5b50565b60008135905061230d816122e7565b92915050565b600060208284031215612329576123286122d3565b5b6000612337848285016122fe565b91505092915050565b600073ffffffffffffffffffffffffffffffffffffffff82169050919050565b600061236b82612340565b9050919050565b61237b81612360565b82525050565b600082825260208201905092915050565b600061239d82612217565b6123a78185612381565b93506123b7818560208601612233565b6123c08161225d565b840191505092915050565b60006060830160008301516123e36000860182612372565b50602083015184820360208601526123fb8282612392565b915050604083015184820360408601526124158282612392565b9150508091505092915050565b61242b816122dd565b82525050565b6000606082019050818103600083015261244b81866123cb565b905061245a6020830185612422565b6124676040830184612422565b949350505050565b60006020820190506124846000830184612422565b92915050565b600080fd5b600080fd5b7f4e487b7100000000000000000000000000000000000000000000000000000000600052604160045260246000fd5b6124cc8261225d565b810181811067ffffffffffffffff821117156124eb576124ea612494565b5b80604052505050565b60006124fe6122c9565b905061250a82826124c3565b919050565b600067ffffffffffffffff82111561252a57612529612494565b5b6125338261225d565b9050602081019050919050565b82818337600083830152505050565b600061256261255d8461250f565b6124f4565b90508281526020810184848401111561257e5761257d61248f565b5b612589848285612540565b509392505050565b600082601f8301126125a6576125a561248a565b5b81356125b684826020860161254f565b91505092915050565b600080604083850312156125d6576125d56122d3565b5b600083013567ffffffffffffffff8111156125f4576125f36122d8565b5b61260085828601612591565b925050602083013567ffffffffffffffff811115612621576126206122d8565b5b61262d85828601612591565b9150509250929050565b60008115159050919050565b61264c81612637565b82525050565b60006020820190506126676000830184612643565b92915050565b600061267882612340565b9050919050565b6126888161266d565b82525050565b60006020820190506126a3600083018461267f565b92915050565b6126b28161266d565b81146126bd57600080fd5b50565b6000813590506126cf816126a9565b92915050565b600080604083850312156126ec576126eb6122d3565b5b60006126fa858286016126c0565b925050602061270b858286016122fe565b9150509250929050565b600060a08201905061272a600083018861267f565b818103602083015261273c818761226e565b90508181036040830152612750818661226e565b905061275f6060830185612422565b61276c6080830184612422565b9695505050505050565b600081519050919050565b600082825260208201905092915050565b6000819050602082019050919050565b60006060830160008301516127ba6000860182612372565b50602083015184820360208601526127d28282612392565b915050604083015184820360408601526127ec8282612392565b9150508091505092915050565b612802816122dd565b82525050565b6000606083016000830151848203600086015261282582826127a2565b915050602083015161283a60208601826127f9565b50604083015161284d60408601826127f9565b508091505092915050565b60006128648383612808565b905092915050565b6000602082019050919050565b600061288482612776565b61288e8185612781565b9350836020820285016128a085612792565b8060005b858110156128dc57848403895281516128bd8582612858565b94506128c88361286c565b925060208a019950506001810190506128a4565b50829750879550505050505092915050565b600060208201905081810360008301526129088184612879565b905092915050565b600060208284031215612926576129256122d3565b5b6000612934848285016126c0565b91505092915050565b600081519050919050565b600082825260208201905092915050565b6000819050602082019050919050565b6129728161266d565b82525050565b600060a0830160008301516129906000860182612969565b50602083015184820360208601526129a88282612392565b915050604083015184820360408601526129c28282612392565b91505060608301516129d760608601826127f9565b5060808301516129ea60808601826127f9565b508091505092915050565b6000612a018383612978565b905092915050565b6000602082019050919050565b6000612a218261293d565b612a2b8185612948565b935083602082028501612a3d85612959565b8060005b85811015612a795784840389528151612a5a85826129f5565b9450612a6583612a09565b925060208a01995050600181019050612a41565b50829750879550505050505092915050565b60006020820190508181036000830152612aa58184612a16565b905092915050565b600081519050919050565b600082825260208201905092915050565b6000819050602082019050919050565b6000612ae583836127a2565b905092915050565b6000602082019050919050565b6000612b0582612aad565b612b0f8185612ab8565b935083602082028501612b2185612ac9565b8060005b85811015612b5d5784840389528151612b3e8582612ad9565b9450612b4983612aed565b925060208a01995050600181019050612b25565b50829750879550505050505092915050565b7f4e487b7100000000000000000000000000000000000000000000000000000000600052602160045260246000fd5b60038110612baf57612bae612b6f565b5b50565b6000819050612bc082612b9e565b919050565b6000612bd082612bb2565b9050919050565b612be081612bc5565b82525050565b600061012083016000830151612bff6000860182612969565b5060208301518482036020860152612c178282612392565b9150506040830151612c2c60408601826127f9565b506060830151612c3f60608601826127f9565b506080830151612c5260808601826127f9565b5060a0830151612c6560a08601826127f9565b5060c0830151612c7860c08601826127f9565b5060e083015184820360e0860152612c908282612afa565b915050610100830151612ca7610100860182612bd7565b508091505092915050565b60006020820190508181036000830152612ccc8184612be6565b905092915050565b600082825260208201905092915050565b6000612cf082612aad565b612cfa8185612cd4565b935083602082028501612d0c85612ac9565b8060005b85811015612d485784840389528151612d298582612ad9565b9450612d3483612aed565b925060208a01995050600181019050612d10565b50829750879550505050505092915050565b60006020820190508181036000830152612d748184612ce5565b905092915050565b612d8581612bc5565b82525050565b6000602082019050612da06000830184612d7c565b92915050565b612daf81612360565b82525050565b6000606082019050612dca6000830186612da6565b8181036020830152612ddc818561226e565b90508181036040830152612df0818461226e565b9050949350505050565b600067ffffffffffffffff821115612e1557612e14612494565b5b602082029050602081019050919050565b600080fd5b600080fd5b600080fd5b612e3e81612360565b8114612e4957600080fd5b50565b600081359050612e5b81612e35565b92915050565b600060608284031215612e7757612e76612e2b565b5b612e8160606124f4565b90506000612e9184828501612e4c565b600083015250602082013567ffffffffffffffff811115612eb557612eb4612e30565b5b612ec184828501612591565b602083015250604082013567ffffffffffffffff811115612ee557612ee4612e30565b5b612ef184828501612591565b60408301525092915050565b6000612f10612f0b84612dfa565b6124f4565b90508083825260208201905060208402830185811115612f3357612f32612e26565b5b835b81811015612f7a57803567ffffffffffffffff811115612f5857612f5761248a565b5b808601612f658982612e61565b85526020850194505050602081019050612f35565b5050509392505050565b600082601f830112612f9957612f9861248a565b5b8135612fa9848260208601612efd565b91505092915050565b600080600060608486031215612fcb57612fca6122d3565b5b600084013567ffffffffffffffff811115612fe957612fe86122d8565b5b612ff586828701612591565b9350506020613006868287016122fe565b925050604084013567ffffffffffffffff811115613027576130266122d8565b5b61303386828701612f84565b9150509250925092565b7f4e487b7100000000000000000000000000000000000000000000000000000000600052602260045260246000fd5b6000600282049050600182168061308457607f821691505b6020821081036130975761309661303d565b5b50919050565b7f50726f6a65637420686173206e6f742073746172746564206f7220686173206560008201527f6e64656400000000000000000000000000000000000000000000000000000000602082015250565b60006130f9602483612222565b91506131048261309d565b604082019050919050565b60006020820190508181036000830152613128816130ec565b9050919050565b7f416d6f756e74206d7573742062652067726561746572207468616e207a65726f600082015250565b6000613165602083612222565b91506131708261312f565b602082019050919050565b6000602082019050818103600083015261319481613158565b9050919050565b7f42616c616e6365206f66206163636f756e74206973206e6f7420656e6f756768600082015250565b60006131d1602083612222565b91506131dc8261319b565b602082019050919050565b60006020820190508181036000830152613200816131c4565b9050919050565b60008190508160005260206000209050919050565b60006020601f8301049050919050565b600082821b905092915050565b6000600883026132697fffffffffffffffffffffffffffffffffffffffffffffffffffffffffffffffff8261322c565b613273868361322c565b95508019841693508086168417925050509392505050565b6000819050919050565b60006132b06132ab6132a6846122dd565b61328b565b6122dd565b9050919050565b6000819050919050565b6132ca83613295565b6132de6132d6826132b7565b848454613239565b825550505050565b600090565b6132f36132e6565b6132fe8184846132c1565b505050565b5b81811015613322576133176000826132eb565b600181019050613304565b5050565b601f8211156133675761333881613207565b6133418461321c565b81016020851015613350578190505b61336461335c8561321c565b830182613303565b50505b505050565b600082821c905092915050565b600061338a6000198460080261336c565b1980831691505092915050565b60006133a38383613379565b9150826002028217905092915050565b6133bc82612217565b67ffffffffffffffff8111156133d5576133d4612494565b5b6133df825461306c565b6133ea828285613326565b600060209050601f83116001811461341d576000841561340b578287015190505b6134158582613397565b86555061347d565b601f19841661342b86613207565b60005b828110156134535784890151825560018201915060208501945060208101905061342e565b86831015613470578489015161346c601f891682613379565b8355505b6001600288020188555050505b505050505050565b600060a08301600083015161349d6000860182612969565b50602083015184820360208601526134b58282612392565b915050604083015184820360408601526134cf8282612392565b91505060608301516134e460608601826127f9565b5060808301516134f760808601826127f9565b508091505092915050565b6000602082019050818103600083015261351c8184613485565b905092915050565b7f4e487b7100000000000000000000000000000000000000000000000000000000600052601160045260246000fd5b600061355e826122dd565b9150613569836122dd565b925082820190508082111561358157613580613524565b5b92915050565b7f4e487b7100000000000000000000000000000000000000000000000000000000600052601260045260246000fd5b60006135c1826122dd565b91506135cc836122dd565b9250826135dc576135db613587565b5b828204905092915050565b7f4e6f207065726d697373696f6e00000000000000000000000000000000000000600082015250565b600061361d600d83612222565b9150613628826135e7565b602082019050919050565b6000602082019050818103600083015261364c81613610565b9050919050565b7f50726f6a6563742069732072756e6e696e67206f722068617320656e64656400600082015250565b6000613689601f83612222565b915061369482613653565b602082019050919050565b600060208201905081810360008301526136b88161367c565b9050919050565b7f4e487b7100000000000000000000000000000000000000000000000000000000600052603260045260246000fd5b60006136f9826122dd565b91507fffffffffffffffffffffffffffffffffffffffffffffffffffffffffffffffff820361372b5761372a613524565b5b600182019050919050565b600060608201905061374b600083018661267f565b6137586020830185612da6565b6137656040830184612422565b94935050505056fea26469706673582212206434137356ab6f4b47608a88180de81201a9b724f31fad2bb129936d503d60b764736f6c63430008110033a2646970667358221220326ae71f8562ec15453f2ea12fb87953d4f372a7c1786570f45bdfc4918676ab64736f6c63430008110033",
  "immutableReferences": {},
  "source": "// SPDX-License-Identifier: GPL-3.0-or-later\npragma solidity >=0.7.0 <0.9.0;\n\nimport \"./Project.sol\";\n\ncontract Charity {\n    address[] public listProject;\n    address public owner;\n\n    constructor() {\n        owner = msg.sender;\n    }\n\n    //event\n    event addCharityProjectEvent(\n        address owner,\n        address projectAddress,\n        string name,\n        uint256 target\n    );\n\n    function addCharityProject(string memory _name, uint256 _target)\n        public\n        returns (bool)\n    {\n        require(msg.sender == owner, \"No Permission\");\n\n        Project charity = new Project(_name, _target, msg.sender);\n        listProject.push(address(charity));\n        emit addCharityProjectEvent(\n            msg.sender,\n            charity.getAddress(),\n            _name,\n            _target\n        );\n        return true;\n    }\n\n    function deleteCharityProject(address _address) public {\n        require(msg.sender == owner, \"No Permission\");\n\n        uint256 i = findProject(_address);\n        removeProjectByIndex(i);\n    }\n\n    function findProject(address _address) public view returns (uint256) {\n        uint256 i = 0;\n        while (listProject[i] != _address) {\n            i++;\n        }\n        return i;\n    }\n\n    function removeProjectByIndex(uint256 i) public {\n        listProject[i] = listProject[listProject.length - 1];\n        listProject.pop();\n    }\n\n    function getAllProject() public view returns (address[] memory) {\n        return listProject;\n    }\n\n    function getProjectInfo(address _address)\n        public\n        view\n        returns (Project.ProjectInfo memory)\n    {\n        Project pi = Project(_address);\n        return pi.getProjectInfo();\n    }\n\n    function getOwner() public view returns (address) {\n        return owner;\n    }\n\n    function getInfoCharity()\n        public\n        view\n        returns (\n            uint256 totalDonate,\n            uint256 totalDonator,\n            uint256 totalBeneficy\n        )\n    {\n        for (uint256 i = 0; i < listProject.length; i++) {\n            Project.ProjectInfo memory p = Project(listProject[i])\n                .getProjectInfo();\n            totalDonate += (p.balance + p.allocated);\n            totalDonator += p.numberOfDonator;\n            totalBeneficy += p.numberOfBeneficy;\n        }\n    }\n}\n",
  "sourcePath": "/home/kieumy/Desktop/Data/DOAN/charity-project-main/contracts/Charity.sol",
  "compiler": {
    "name": "solc",
    "version": "0.8.17+commit.8df45f5f.Emscripten.clang"
  },
  "schemaVersion": "3.4.10",
  "updatedAt": "2022-11-21T16:27:27.768Z",
  "networkType": "ethereum",
  "devdoc": {
    "kind": "dev",
    "methods": {},
    "version": 1
  },
  "userdoc": {
    "kind": "user",
    "methods": {},
    "version": 1
  }
}